{
  "contractName": "CoffeeChain",
  "abi": [
    {
      "inputs": [],
      "stateMutability": "nonpayable",
      "type": "constructor"
    },
    {
      "inputs": [
        {
          "internalType": "uint256",
          "name": "",
          "type": "uint256"
        }
      ],
      "name": "coffees",
      "outputs": [
        {
          "internalType": "uint256",
          "name": "upc",
          "type": "uint256"
        },
        {
          "internalType": "address payable",
          "name": "producer",
          "type": "address"
        },
        {
          "internalType": "address payable",
          "name": "consumer",
          "type": "address"
        },
        {
          "internalType": "uint256",
          "name": "itemPrice",
          "type": "uint256"
        }
      ],
      "stateMutability": "view",
      "type": "function"
    },
    {
      "inputs": [],
      "name": "nextUpc",
      "outputs": [
        {
          "internalType": "uint256",
          "name": "",
          "type": "uint256"
        }
      ],
      "stateMutability": "view",
      "type": "function"
    },
    {
      "inputs": [
        {
          "internalType": "uint256",
          "name": "_price",
          "type": "uint256"
        }
      ],
      "name": "addCoffee",
      "outputs": [],
      "stateMutability": "nonpayable",
      "type": "function"
    },
    {
      "inputs": [
        {
          "internalType": "uint256",
          "name": "_upc",
          "type": "uint256"
        }
      ],
      "name": "getCoffee",
      "outputs": [
        {
          "internalType": "uint256",
          "name": "",
          "type": "uint256"
        },
        {
          "internalType": "address",
          "name": "",
          "type": "address"
        },
        {
          "internalType": "address",
          "name": "",
          "type": "address"
        },
        {
          "internalType": "uint256",
          "name": "",
          "type": "uint256"
        }
      ],
      "stateMutability": "view",
      "type": "function"
    },
    {
      "inputs": [
        {
          "internalType": "uint256",
          "name": "_upc",
          "type": "uint256"
        }
      ],
      "name": "buyCoffee",
      "outputs": [],
      "stateMutability": "payable",
      "type": "function"
    }
  ],
  "bytecode": "0x608060405234801561001057600080fd5b5060018081905550610955806100276000396000f3fe60806040526004361061004a5760003560e01c8063aa5867041461004f578063af28ee351461008f578063b03b4a29146100ba578063d2e4d96a146100d6578063e0a93fdf146100ff575b600080fd5b34801561005b57600080fd5b5061007660048036038101906100719190610622565b61013f565b604051610086949392919061071d565b60405180910390f35b34801561009b57600080fd5b506100a46101af565b6040516100b19190610702565b60405180910390f35b6100d460048036038101906100cf9190610622565b6101b5565b005b3480156100e257600080fd5b506100fd60048036038101906100f89190610622565b6103d7565b005b34801561010b57600080fd5b5061012660048036038101906101219190610622565b610502565b6040516101369493929190610762565b60405180910390f35b60006020528060005260406000206000915090508060000154908060010160009054906101000a900473ffffffffffffffffffffffffffffffffffffffff16908060020160009054906101000a900473ffffffffffffffffffffffffffffffffffffffff16908060030154905084565b60015481565b6000806000838152602001908152602001600020604051806080016040529081600082015481526020016001820160009054906101000a900473ffffffffffffffffffffffffffffffffffffffff1673ffffffffffffffffffffffffffffffffffffffff1673ffffffffffffffffffffffffffffffffffffffff1681526020016002820160009054906101000a900473ffffffffffffffffffffffffffffffffffffffff1673ffffffffffffffffffffffffffffffffffffffff1673ffffffffffffffffffffffffffffffffffffffff1681526020016003820154815250509050600073ffffffffffffffffffffffffffffffffffffffff16816040015173ffffffffffffffffffffffffffffffffffffffff1614610309576040517f08c379a0000000000000000000000000000000000000000000000000000000008152600401610300906106e2565b60405180910390fd5b8060600151341015610350576040517f08c379a0000000000000000000000000000000000000000000000000000000008152600401610347906106c2565b60405180910390fd5b33816040019073ffffffffffffffffffffffffffffffffffffffff16908173ffffffffffffffffffffffffffffffffffffffff1681525050806020015173ffffffffffffffffffffffffffffffffffffffff166108fc349081150290604051600060405180830381858888f193505050501580156103d2573d6000803e3d6000fd5b505050565b6000604051806080016040528060015481526020013373ffffffffffffffffffffffffffffffffffffffff168152602001600073ffffffffffffffffffffffffffffffffffffffff1681526020018381525090508060008060015481526020019081526020016000206000820151816000015560208201518160010160006101000a81548173ffffffffffffffffffffffffffffffffffffffff021916908373ffffffffffffffffffffffffffffffffffffffff16021790555060408201518160020160006101000a81548173ffffffffffffffffffffffffffffffffffffffff021916908373ffffffffffffffffffffffffffffffffffffffff1602179055506060820151816003015590505060018060008282546104f791906107b8565b925050819055505050565b6000806000806000806000878152602001908152602001600020604051806080016040529081600082015481526020016001820160009054906101000a900473ffffffffffffffffffffffffffffffffffffffff1673ffffffffffffffffffffffffffffffffffffffff1673ffffffffffffffffffffffffffffffffffffffff1681526020016002820160009054906101000a900473ffffffffffffffffffffffffffffffffffffffff1673ffffffffffffffffffffffffffffffffffffffff1673ffffffffffffffffffffffffffffffffffffffff168152602001600382015481525050905080600001518160200151826040015183606001519450945094509450509193509193565b60008135905061061c81610908565b92915050565b6000602082840312156106385761063761088b565b5b60006106468482850161060d565b91505092915050565b61065881610820565b82525050565b6106678161080e565b82525050565b600061067a6014836107a7565b915061068582610890565b602082019050919050565b600061069d6026836107a7565b91506106a8826108b9565b604082019050919050565b6106bc81610852565b82525050565b600060208201905081810360008301526106db8161066d565b9050919050565b600060208201905081810360008301526106fb81610690565b9050919050565b600060208201905061071760008301846106b3565b92915050565b600060808201905061073260008301876106b3565b61073f602083018661064f565b61074c604083018561064f565b61075960608301846106b3565b95945050505050565b600060808201905061077760008301876106b3565b610784602083018661065e565b610791604083018561065e565b61079e60608301846106b3565b95945050505050565b600082825260208201905092915050565b60006107c382610852565b91506107ce83610852565b9250827fffffffffffffffffffffffffffffffffffffffffffffffffffffffffffffffff038211156108035761080261085c565b5b828201905092915050565b600061081982610832565b9050919050565b600061082b82610832565b9050919050565b600073ffffffffffffffffffffffffffffffffffffffff82169050919050565b6000819050919050565b7f4e487b7100000000000000000000000000000000000000000000000000000000600052601160045260246000fd5b600080fd5b7f496e73756666696369656e74207061796d656e74000000000000000000000000600082015250565b7f5468697320636f666665652068617320616c7265616479206265656e2070757260008201527f6368617365640000000000000000000000000000000000000000000000000000602082015250565b61091181610852565b811461091c57600080fd5b5056fea26469706673582212207afdce8742add026a88be3a7eba94a3e8b88bc92a0f5b47b64c44d1d9e7f99bf64736f6c63430008070033",
  "immutableReferences": {},
  "source": "// SPDX-License-Identifier: MIT\npragma solidity ^0.8.7;\n\ncontract CoffeeChain {\n\n    struct Coffee {\n        uint upc;    // Universal Product Code\n        address payable producer;\n        address payable consumer;\n        uint itemPrice; // In wei, 1 ETH = 10^18 Wei\n    }\n\n    mapping(uint => Coffee) public coffees;\n    uint public nextUpc;\n\n    constructor() {\n        nextUpc = 1;\n    }\n\n    function addCoffee(uint _price) public {\n        Coffee memory newCoffee = Coffee({\n            upc: nextUpc,\n            producer: payable(msg.sender),\n            consumer: payable(address(0)),\n            itemPrice: _price\n        });\n        \n        coffees[nextUpc] = newCoffee;\n        nextUpc += 1;\n    }\n\n    function getCoffee(uint _upc) public view returns (uint, address, address, uint) {\n        Coffee memory coffee = coffees[_upc];\n        return (coffee.upc, coffee.producer, coffee.consumer, coffee.itemPrice);\n    }\n\n    function buyCoffee(uint _upc) public payable {\n        Coffee memory coffee = coffees[_upc];\n        require(coffee.consumer == address(0), \"This coffee has already been purchased\");\n        require(msg.value >= coffee.itemPrice, \"Insufficient payment\");\n        coffee.consumer = payable(msg.sender);\n        coffee.producer.transfer(msg.value);\n    }\n}\n",
  "sourcePath": "/Users/bberta/Playground/ethereum/contracts/coffee.sol",
  "compiler": {
    "name": "solc",
    "version": "0.8.7+commit.e28d00a7.Emscripten.clang"
  },
  "schemaVersion": "3.4.14",
  "updatedAt": "2023-05-30T17:24:46.670Z",
  "devdoc": {
    "kind": "dev",
    "methods": {},
    "version": 1
  },
  "userdoc": {
    "kind": "user",
    "methods": {},
    "version": 1
  }
}